:100000000C942A000C94E7000C9447000C944700D1
:100010000C9447000C9447000C9447000C94470044
:100020000C9447000C9447000C9447000C94470034
:100030000C9447000C9447000C9447000C94470024
:100040000C9447000C9447000C9447000C94470014
:100050000C94470011241FBECFE5D8E0DEBFCDBF12
:1000600010E0A0E6B0E0E6EEFAE002C005900D92E6
:10007000A236B107D9F720E0A2E6B0E001C01D9298
:10008000A536B207E1F70E943D010C9471050C946E
:10009000000060E081E40E941A0161E081E40E94B6
:1000A0001A0162E081E40E941A0160E082E40E9489
:1000B0001A0161E082E40E941A0162E082E40E9477
:1000C0001A0162E084E40E9412018FB780688FBF3A
:1000D00085B7836085BF8BB780648BBF0E94A90200
:1000E00008951092620060E081E40E94230162E0C2
:1000F00082E40E94230188E893E10E94AB0260E061
:1001000081E40E942C0162E082E40E942C01C0E0A4
:10011000D0E01AC080916200813049F462E082E44C
:100120000E94230182E080936200C0E0D0E061E0A1
:1001300081E40E94350161E082E40E94350184EF90
:1001400091E00E94AB022196CA30D1051CF361E018
:1001500081E40E942C0161E082E40E942C01109253
:10016000620062E082E40E942C0162E081E40E946D
:10017000230160E082E40E94230188E893E10E9469
:10018000AB0280916200813031F488E893E10E94F3
:10019000AB021092620062E081E40E942C0160E0F8
:1001A00082E40E942C01C0E0D0E00DC061E081E457
:1001B0000E94350161E082E40E94350184EF91E004
:1001C0000E94AB022196CA30D10584F38ACF1F92D8
:1001D0000F920FB60F9211242F933F934F935F937B
:1001E0006F937F938F939F93AF93BF93EF93FF93FF
:1001F00080916200811105C00E943F0381E08093DD
:100200006200FF91EF91BF91AF919F918F917F918C
:100210006F915F914F913F912F910F900FBE0F9073
:100220001F90189540E00E944401882311F081E05E
:100230000895089541E00E944401882311F081E06F
:10024000089580E0089541E00E94D601882311F0CE
:1002500082E0089580E0089540E00E94D60188235E
:1002600011F083E0089580E008950E9468028823D9
:1002700011F084E0089580E008950E9449000E94F2
:10028000710080E090E00895683008F083C0823407
:1002900049F118F4813441F07FC0833409F440C03F
:1002A000843409F45AC078C041110DC02AB381E0EA
:1002B00090E002C0880F991F6A95E2F7809582232B
:1002C0008ABB80E00895413009F068C02AB381E01C
:1002D00090E002C0880F991F6A95E2F7822B8ABBD3
:1002E00080E0089541110DC027B381E090E002C085
:1002F000880F991F6A95E2F78095822387BB80E07B
:100300000895413009F04CC027B381E090E002C06D
:10031000880F991F6A95E2F7822B87BB80E00895CA
:1003200041110DC024B381E090E002C0880F991FF5
:100330006A95E2F78095822384BB80E0089541307E
:1003400089F524B381E090E002C0880F991F6A9577
:10035000E2F7822B84BB80E0089541110DC021B3E8
:1003600081E090E002C0880F991F6A95E2F78095BE
:10037000822381BB80E008954130B1F421B381E054
:1003800090E002C0880F991F6A95E2F7822B81BB2B
:1003900080E0089582E0089581E0089583E0089563
:1003A00083E0089583E0089583E00895683008F0BD
:1003B00083C0823449F118F4813441F07FC0833422
:1003C00009F440C0843409F45AC078C041110DC00A
:1003D0002BB381E090E002C0880F991F6A95E2F785
:1003E000809582238BBB80E00895413009F068C07E
:1003F0002BB381E090E002C0880F991F6A95E2F765
:10040000822B8BBB80E0089541110DC028B381E0A1
:1004100090E002C0880F991F6A95E2F780958223C9
:1004200088BB80E00895413009F04CC028B381E0DA
:1004300090E002C0880F991F6A95E2F7822B88BB73
:1004400080E0089541110DC025B381E090E002C025
:10045000880F991F6A95E2F78095822385BB80E01B
:100460000895413089F525B381E090E002C0880FFE
:10047000991F6A95E2F7822B85BB80E008954111B0
:100480000DC022B381E090E002C0880F991F6A95E9
:10049000E2F78095822382BB80E008954130B1F479
:1004A00022B381E090E002C0880F991F6A95E2F7BD
:1004B000822B82BB80E0089582E0089581E0089558
:1004C00084E0089584E0089584E0089584E0089528
:1004D0006830D8F58234A9F018F4813431F037C08F
:1004E0008334D9F0843429F132C02BB381E090E019
:1004F00002C0880F991F6A95E2F782278BBB80E0C4
:10050000089528B381E090E002C0880F991F6A9592
:10051000E2F7822788BB80E0089525B381E090E070
:1005200002C0880F991F6A95E2F7822785BB80E099
:10053000089522B381E090E002C0880F991F6A9568
:10054000E2F7822782BB80E0089582E0089581E08F
:10055000089513BE08958F929F92AF92BF92CF924B
:10056000DF92EF92FF921092640010926300BC0140
:1005700080E090E00E9479046B017C012FE632E17B
:1005800043E85EE30E946C051816A4F52FE632E1FD
:1005900043E85EE3C701B6010E94D1030E94B503A0
:1005A0000E9443044B015C01709361006093600002
:1005B0002FE632E143E85AE3C701B6010E94D103B6
:1005C0006B017C01B401990C880B990B0E947B0490
:1005D0009B01AC01C701B6010E94D1039B01AC0194
:1005E00060E070E080E893E40E9448030E944A04BF
:1005F00062BF1DC02FE632E143E85EE3C701B601EA
:100600000E94CC03882394F4A70196016FE672E15F
:1006100083E89EE30E9448032FE632E143E85AE371
:100620000E94D1030E944A0462BF01C012BE83B778
:10063000816083BF0FC008B600FEFDCF88B7816020
:1006400088BF80916300909164000196909364004C
:10065000809363002091630030916400809160007A
:10066000909161002817390734F313BEFF90EF9083
:10067000DF90CF90BF90AF909F908F900895809122
:1006800060009091610090936400809363000895EE
:100690005058BB27AA270E9460030C941A050E9499
:1006A0000C0538F00E94130520F039F49F3F19F42F
:1006B00026F40C9409050EF4E095E7FB0C94DA049B
:1006C000E92F0E942B0558F3BA17620773078407B6
:1006D000950720F079F4A6F50C9465050EF4E095E5
:1006E0000B2EBA2FA02D0B01B90190010C01CA01EC
:1006F000A0011124FF27591B99F0593F50F4503E97
:1007000068F11A16F040A22F232F342F4427585F88
:10071000F3CF469537952795A795F0405395C9F7A0
:100720007EF41F16BA0B620B730B840BBAF0915058
:10073000A1F0FF0FBB1F661F771F881FC2F70EC0F7
:10074000BA0F621F731F841F48F4879577956795CA
:10075000B795F7959E3F08F0B0CF9395880F08F0B6
:100760009927EE0F9795879508950E944D0590F073
:100770009F3748F4911116F40C94660560E070E020
:1007800080E89FE3089526F01B16611D711D811DF1
:100790000C94E0040C94FB040E94B60408F481E07D
:1007A00008950E94E5030C941A050E94130558F061
:1007B0000E940C0540F029F45F3F29F00C94DA0404
:1007C00051110C9466050C9409050E942B0568F3E1
:1007D0009923B1F3552391F3951B550BBB27AA27FA
:1007E00062177307840738F09F5F5F4F220F331F34
:1007F000441FAA1FA9F335D00E2E3AF0E0E832D0FC
:1008000091505040E695001CCAF72BD0FE2F29D0FE
:10081000660F771F881FBB1F261737074807AB07D0
:10082000B0E809F0BB0B802DBF01FF2793585F4F45
:100830003AF09E3F510578F00C94DA040C9466056A
:100840005F3FE4F3983ED4F3869577956795B79527
:10085000F7959F5FC9F7880F911D9695879597F932
:100860000895E1E0660F771F881FBB1F62177307AB
:100870008407BA0720F0621B730B840BBA0BEE1FC0
:1008800088F7E09508950E944A046894B1110C9489
:10089000660508950E94330588F09F5798F0B92F98
:1008A0009927B751B0F0E1F0660F771F881F991FA5
:1008B0001AF0BA95C9F714C0B13091F00E946505DD
:1008C000B1E008950C946505672F782F8827B85FED
:1008D00039F0B93FCCF3869577956795B395D9F7FD
:1008E0003EF490958095709561957F4F8F4F9F4F07
:1008F0000895E89409C097FB3EF490958095709513
:1009000061957F4F8F4F9F4F9923A9F0F92F96E95B
:10091000BB279395F695879577956795B795F111D0
:10092000F8CFFAF4BB0F11F460FF1BC06F5F7F4F6D
:100930008F4F9F4F16C0882311F096E911C077237F
:1009400021F09EE8872F762F05C0662371F096E888
:10095000862F70E060E02AF09A95660F771F881F57
:10096000DAF7880F9695879597F90895990F0008FB
:10097000550FAA0BE0E8FEEF16161706E807F90771
:10098000C0F012161306E407F50798F0621B730B0C
:10099000840B950B39F40A2661F0232B242B252B8D
:1009A00021F408950A2609F4A140A6958FEF811D30
:1009B000811D089597F99F6780E870E060E00895D1
:1009C000882371F4772321F09850872B762F07C066
:1009D000662311F499270DC09051862B70E060E0DA
:1009E0002AF09A95660F771F881FDAF7880F969579
:1009F000879597F908959F3F31F0915020F487959E
:100A000077956795B795880F911D9695879597F976
:100A100008959FEF80EC089500240A941616170697
:100A200018060906089500240A94121613061406DF
:100A300005060895092E0394000C11F4882352F042
:100A4000BB0F40F4BF2B11F460FF04C06F5F7F4FFA
:100A50008F4F9F4F089557FD9058440F551F59F0E1
:100A60005F3F71F04795880F97FB991F61F09F3F9B
:100A700079F087950895121613061406551FF2CFC4
:100A80004695F1DF08C0161617061806991FF1CF14
:100A9000869571056105089408950E943305A0F0BC
:100AA000BEE7B91788F4BB279F3860F41616B11D4E
:100AB000672F782F8827985FF7CF8695779567956A
:100AC000B11D93959639C8F30895E894BB2766271E
:100AD0007727CB0197F908950E94B60408F48FEFA9
:060AE0000895F894FFCF19
:020AE60001000D
:00000001FF
